:020000040000FA
:100000000C945D000C9485000C9485000C94850084
:100010000C9485000C9485000C9485000C9485004C
:100020000C9485000C9485000C9485000C9485003C
:100030000C9485000C9485000C9485000C9485002C
:100040000C94610E0C9485000C9485000C94850032
:100050000C9485000C9485000C9485000C9485000C
:100060000C9485000C94850000000008000201003B
:100070000003040700000000000000000000000072
:10008000250028002B0000000000240027002A0083
:10009000040404040404040402020202020203032E
:1000A0000303030301020408102040800102040836
:1000B0001020010204081020AB0E11241FBECFEF48
:1000C000D8E0DEBFCDBF11E0A0E0B1E0E2E5FCE2A8
:1000D00002C005900D92A636B107D9F721E0A6E639
:1000E000B1E001C01D92AD3EB207E1F710E0CDE5F1
:1000F000D0E004C02197FE010E947911CC35D107D0
:10010000C9F70E94160F0C9427160C9400008CBDA2
:100110009DBD089590E0FC01EC55FF4F2491805760
:100120009F4FFC018491882399F090E0880F991FDC
:10013000FC01EA57FF4FA591B491FC01E458FF4F31
:10014000859194918FB7F894EC91E22BEC938FBF4B
:10015000089590E0FC01E859FF4F2491FC01EC5513
:10016000FF4F3491FC01E057FF4FE491EE23C9F0BB
:10017000222339F0233001F1A8F4213019F1223083
:1001800029F1F0E0EE0FFF1FE458FF4FA591B49165
:100190008FB7F894EC91611126C030953E233C93C3
:1001A0008FBF08952730A9F02830C9F0243049F7CF
:1001B000809180008F7D03C0809180008F77809335
:1001C0008000DFCF84B58F7784BDDBCF84B58F7D92
:1001D000FBCF8091B0008F778093B000D2CF809119
:1001E000B0008F7DF9CF3E2BDACF3FB7F8948091E6
:1001F0006B0190916C01A0916D01B0916E0126B5DB
:10020000A89B05C02F3F19F00196A11DB11D3FBF4E
:10021000BA2FA92F982F8827BC01CD01620F711D1D
:10022000811D911D42E0660F771F881F991F4A9517
:10023000D1F708958F929F92AF92BF92CF92DF92A3
:10024000EF92FF924B015C010E94F5006B017C0173
:100250000E94F5006C197D098E099F09683E734064
:1002600081059105A8F321E0821A9108A108B1083F
:1002700088EEC80E83E0D81EE11CF11C81149104A5
:10028000A104B10429F7FF90EF90DF90CF90BF90C9
:10029000AF909F908F900895FC0120812EBD9B010F
:1002A0002150310941F051810DB407FEFDCF4EB50B
:1002B0005EBD4193F5CF61507109860F971F0DB454
:1002C00007FEFDCF2EB5FC0120830895E0918C013F
:1002D000F0918D01808190918B01892B808308950D
:1002E000E0918C01F0918D01908180918B0180953E
:1002F0008923808308958EBD00000DB407FEFDCFD5
:100300008EB50895AF92BF92CF92DF92EF92FF9297
:100310000F931F93CF93DF93CDB7DEB728970FB618
:10032000F894DEBF0FBECDBF8C017B016A018091C6
:100330008F018333E1F45801A40EB51EA016B10657
:1003400009F46FC00E94700180EF0E947B01812F31
:100350000E947B01802F0E947B010F5F1F4FF701DE
:1003600081917F010E947B010E946601E7CF5B01C2
:10037000A40EB51E8433C1F40E94700119830A8350
:100380008D2D80688B83CC8264E070E0CE01019675
:100390000E944C01AE14BF0409F441C0F7018191E1
:1003A0007F010E947B01F6CF0E9470010F3F110573
:1003B00009F028F419820A8384E08B830CC017FDAE
:1003C00017C019820A8333E0169507953A95E1F72D
:1003D000007E0C600B8386E0C816D104A0F5F701FF
:1003E000DE011496EA15FB0599F081918D93FACF01
:1003F000C80126E0969587952A95E1F7807E1983B6
:100400000A830115104C10F48461D7CF8C61D5CFCD
:10041000B6016D5F7F4FCE0101960E944C010E9494
:100420006601C60128960FB6F894DEBF0FBECDBF99
:10043000DF91CF911F910F91FF90EF90DF90CF90C0
:10044000BF90AF90089563E070E0CE0101960E94E6
:100450004C01F70181917F010E947B01AE14BF0422
:10046000C1F7DDCFCF93DF931F92CDB7DEB789837E
:1004700041E050E0BE016F5F7F4F90E080E00E945E
:1004800082010F90DF91CF91089590E020918F012C
:10049000233339F40C96982F990F990F990F80E018
:1004A00008954896F8CFDA01E0919001F0E0FE2F30
:1004B000EE27E60FF71F90E0982F8827A901BD01CE
:1004C0008E0F9F1F0C948201CF93DF9300D0CDB786
:1004D000DEB779836A8322E030E0AE014F5F5F4F81
:1004E00064E070E00E9453020F900F90DF91CF9173
:1004F0000895CF93DF931F92CDB7DEB7209190017F
:1005000030E0322F2227260F371F90E0982F8827C0
:10051000498341E050E0BE016F5F7F4F820F931F20
:100520000E9482010F90DF91CF9108950895CF939B
:10053000DF931F92CDB7DEB76983DC01ED91FC91AB
:100540000280F381E02D41E050E0BE016F5F7F4FFC
:1005500009950F90DF91CF910895FC01818D928DC7
:1005600008950895DF92EF92FF920F931F93CF9318
:10057000DF9300D0CDB7DEB7FB01DC0157961C92AC
:100580001E9256972281211109C02381211106C094
:100590002481211103C02581222369F141155105D0
:1005A00051F17A018F01FC01D08C80E591E00E942D
:1005B0008700A8014E5F5F4F24E030E06CE070E000
:1005C0008D2D0E945302F982EA8222E030E0AE01D2
:1005D0004F5F5F4F60E170E08D2D0E94530281E01C
:1005E00090E00F900F90DF91CF911F910F91FF90AE
:1005F000EF90DF90089580E0F3CFFC01848595852E
:100600000895FC0184899589089526E531E0FC016F
:1006100031832083FB014089518962897389FC0100
:1006200042835383648375830895DC01ED91FC91CB
:10063000048CF58DE02D099490E080E00895FB0195
:10064000DC018D919C91009761F060817181611551
:10065000710539F0448155810E94781321E0892B7E
:1006600009F020E0822F08958F929F92AF92BF925F
:10067000EF92FF920F931F93CF93DF93CDB7DEB727
:10068000A1970FB6F894DEBF0FBECDBF7C01FA0173
:10069000CB0119A2223008F42AE08E010F5D1F4F12
:1006A000822E912CB12CA12CBF01A50194010E9496
:1006B0005711F901CA016A3074F5605DD8016E9373
:1006C0008D01232B242B252B79F790E080E01097C8
:1006D00089F0FD0101900020E9F73197AF014A1B35
:1006E0005B0BD701ED91FC910280F381E02DB80105
:1006F000C7010995A1960FB6F894DEBF0FBECDBF16
:10070000DF91CF911F910F91FF90EF90BF90AF902D
:100710009F908F900895695CD1CFFC018081918179
:10072000009711F00C941B120895EF92FF920F9313
:100730001F93CF93DF93EC017B018A01888199811C
:10074000009729F02A813B812417350788F4B801E6
:100750006F5F7F4F0E94A412009791F09983888366
:100760001B830A832C813D81232B11F4FC01108211
:100770001D830C83B701888199810E9471130CC07D
:1007800088819981009711F00E941B1219821882AA
:100790001D821C821B821A82CE01DF91CF911F9194
:1007A0000F91FF90EF900895FC0111821082138247
:1007B000128215821482FB0101900020E9F7319723
:1007C000AF01461B570B0C9495038F929F92AF92EB
:1007D000BF92CF92DF92EF92FF920F931F93CF932E
:1007E000DF937C01EB016C0182E0C80ED11C470154
:1007F000E5E08E0E911C10E000E0F60141916F01E2
:1008000050E070E060E02AE0CE010E9434035C0119
:10081000E881F9810190F081E02D6EE2CE01099529
:100820008A0D9B1D080F191FC814D90431F7F70151
:10083000458150E070E060E02AE0CE010E94340380
:10084000800F911FDF91CF911F910F91FF90EF903B
:10085000DF90CF90BF90AF909F908F900895AF9210
:10086000BF92CF92DF92EF92FF920F931F93CF939D
:10087000DF9300D000D0CDB7DEB78C016B017A01D9
:1008800080918F018333E9F45B016801C40ED51EAA
:10089000C016D106A9F10E9470018FE00E947B0171
:1008A000812F0E947B01802F0E947B010F5F1F4FD1
:1008B00080E00E947B01F50181935F010E94660147
:1008C000E7CF843369F50E94700119830A838F2D65
:1008D0008F778B83EC8264E070E0CE0101960E94FA
:1008E0004C01A70170E060E0C6010E946A13E114A8
:1008F000F10421F0B701C6010E944C010E9466017B
:10090000C7010F900F900F900F90DF91CF911F9123
:100910000F91FF90EF90DF90CF90BF90AF90089530
:100920000E9470010F3F110509F030F419820A830B
:100930001B8263E070E0D1CF17FD0BC019820A83E0
:1009400033E0169507953A95E1F7007E08600B8332
:10095000F0CFC80126E0969587952A95E1F7807E2D
:1009600019830A830115104C18F480618B83E1CF41
:100970008861FCCFCF93DF931F92CDB7DEB7209174
:10098000900130E0322F2227260F371F90E0982F5A
:10099000882741E050E0BE016F5F7F4F820F931FB9
:1009A0000E942F0489810F90DF91CF910895CF93FA
:1009B000C82F462F61E070E00E94790261E070E08C
:1009C0008C2F0E94BA048111F9CFCF910895CF9353
:1009D000C82F80E591E00E94870060E170E08C2FD5
:1009E000CF910C94D704CF93DF93EC01888D8430A2
:1009F00020F40E94E70484E0888FDF91CF9108956E
:100A0000CF93FC01C08D80E591E00E94870060E2F9
:100A100070E08C2F0E94D70462E070E08C2F0E945F
:100A2000BA0484FD16C062E070E08C2F0E94BA0404
:100A300083FF0AC048E162E070E08C2F0E947902D7
:100A400080E090E0CF91089580E591E00E948700DA
:100A5000E3CF40E162E070E08C2F0E94790281E0F8
:100A6000F0CFCF93DF931F92CDB7DEB741E050E0D8
:100A7000BE016F5F7F4F90E080E00E942F0489816C
:100A80000F90DF91CF910895CF93DF93C4E1D0E031
:100A90000E943105882361F061E070E080E090E021
:100AA0000E941A012197A1F780E0DF91CF9108956C
:100AB00081E0FBCFCF92DF92EF92FF920F931F93D3
:100AC000CF93DF93CDB7DEB76A970FB6F894DEBF4A
:100AD0000FBECDBFFA0126E531E03A8329835FEFEF
:100AE0005B835C835D831E8238872F83C280D380C3
:100AF000E480F580C986DA86EB86FC86FB014281BC
:100B00005381648175814F87588B698B7A8B3C8BBD
:100B10002B8BFC0182819381A481B5818D8B9E8B6F
:100B2000AF8BB88F809191018111A9C060E372E011
:100B300080E090E00E941A01DFB6F8940AE910E024
:100B40003EEAE32E30E0F32E80918E01811122C027
:100B5000F8018491F7019491E82FF0E0EE0FFF1F68
:100B6000EA57FF4FA591B4918C91982321F461E04D
:100B70008AE00E94A9008AE00E948A008CB5806108
:100B80008CBD8CB580648CBD8DE00E948A008BE0AA
:100B90000E948A0080918E018F5F80938E01DFBE5C
:100BA000F8010491E02FF0E0EE0FFF1FE458FF4F33
:100BB0008591949190938D0180938C01F701E4903D
:100BC000E0928B018AE00E948A000E94660180E523
:100BD00091E00E94870084E380938F0180E80E9467
:100BE00032020E944405882309F47DC088E00E94F7
:100BF00032020E943105883009F075C080E10E9400
:100C000032020E943105803109F06DC080E00E94FF
:100C100032020E943105182F811165C041E050E079
:100C2000BE01675E7F4F8FE190E00E942F04898DA7
:100C3000833009F058C080E48093900142E06EE177
:100C400070E0812F0E94790242E06FE170E0812F15
:100C50000E9479021F5F143089F740E06EE170E076
:100C6000812F0E94790240E06FE170E0812F0E94A5
:100C700079021F5F183089F781E08093910180E548
:100C800091E00E94870046E050E06EE071E089E06C
:100C900090E00E94820144E050E0BE016B5E7F4F15
:100CA0008FE090E00E94820144E050E0BE01675F67
:100CB0007F4F81E090E00E94820144E050E0BE015D
:100CC0006D5F7F4F85E090E00E9482018F8598895B
:100CD000A989BA898093B2019093B301A093B4011A
:100CE000B093B50169C087E380938F0180E80E94CB
:100CF00032020E944405882329F188E00E943202D2
:100D00000E9431058830F1F480E10E9432020E9495
:100D10003105182F8031B1F480E00E9432020E9428
:100D2000310581110FC041E050E0BE01675E7F4F89
:100D300089E390E00E942F04898D843019F4109388
:100D400090019ACF83E380938F0180E80E94320262
:100D50000E944405882371F180E10E9432020E94C2
:100D60003105803139F582E10E9432020E9431055D
:100D7000823101F580E00E9432020E94310581112A
:100D800019C084E08093900115E51A8F41E050E08E
:100D9000BE01665E7F4F8BE190E00E948201198F59
:100DA00041E050E0BE01675E7F4F8AE190E00E9423
:100DB000820162CF10928F016A960FB6F894DEBF5F
:100DC0000FBECDBFDF91CF911F910F91FF90EF909C
:100DD000DF90CF9008951F93CF93DF931F92CDB7ED
:100DE000DEB7FC01108D143020F5818D928D892B9A
:100DF00001F180E591E00E948700812F0E94450269
:100E000027E0129FF0011124E159FE4F2281338126
:100E1000377041E050E0BE016F5F7F4F820F931F3C
:100E20000E942F04898190E00F90DF91CF911F9154
:100E300008958FEF9FEFF8CFDA01E0919001F0E095
:100E4000FE2FEE27E60FF71F90E0982F8827A901C5
:100E5000BD018E0F9F1F0C942F048F929F92AF9213
:100E6000BF92CF92DF92EF92FF921F93CF93DF93C7
:100E7000CDB7DEB72C970FB6F894DEBF0FBECDBF4F
:100E800020918F0114E0222339F16B017C0180E570
:100E900091E00E9487005E0127E0A20EB11C45018F
:100EA00010E063E070E0812F0E94BA04F4018193A6
:100EB0004F01882349F11F5F143099F710E0F501C5
:100EC00081915F018D31D9F08831C9F08A5182302A
:100ED000B0F01F5F143099F7812F2C960FB6F8945D
:100EE000DEBF0FBECDBFDF91CF911F91FF90EF907E
:100EF000DF90CF90BF90AF909F908F90089560E16A
:100F000070E0812F0E94D704A12EB12C83EE93E0D4
:100F10000197F1F742E870E060E0812F0E947902CA
:100F20004FEF62E070E0812F0E947902B601C11498
:100F3000D10491F480910C0190910D0101968115DD
:100F4000F0EC9F0708F464C090930D0180930C01AE
:100F500060910C0170910D01812F0E94640286E066
:100F6000EAE1F1E0DE01119601900D928A95E1F738
:100F7000F70183818F778C8384818D8385818E8334
:100F8000A7014E5F5F4F24E030E06CE070E0812FFE
:100F90000E945302DB86CC8622E030E0AE01455F42
:100FA0005F4F60E170E0812F0E94530226E030E045
:100FB000AE014F5F5F4F66E070E0812F0E945302E9
:100FC00061E070E0812F0E94D70427E02A9DC001D4
:100FD0002B9D900D11249C0121593E4F7901F9015F
:100FE0001182108222E030E0AE01455F5F4F68E27F
:100FF00070E0812F0E941C078B859C85982789278C
:101000009827F7019383828316821582148264CF16
:1010100080E090EC99CFCF92DF92EF92FF920F9306
:101020001F93CF93DF9300D000D000D0CDB7DEB7B1
:101030008C016B017A01FC01808D843010F40E94D8
:10104000E70486E591E09A838983F60182819381A2
:10105000A481B5818B839C83AD83BE83B701CE0110
:1010600001960E942D07F801808F8430A0F4F58648
:10107000E486128E118E81E026960FB6F894DEBFBC
:101080000FBECDBFDF91CF911F910F91FF90EF90D9
:10109000DF90CF90089580E0EFCFFF920F931F93E2
:1010A000CF93DF9300D0CDB7DEB7F82E22E030E04B
:1010B000AE014F5F5F4F66E270E00E941C0709813E
:1010C0001A8110270127102722E030E0AE014F5F80
:1010D0005F4F66E270E08F2D0E941C0789819A8124
:1010E0009827892798270817190749F4C8010F90EE
:1010F0000F90DF91CF911F910F91FF9008958C0178
:10110000E3CF4F925F927F928F929F92AF92BF9266
:10111000CF92DF92EF92FF920F931F93CF93DF93C3
:1011200000D0CDB7DEB7782E6B014A01A82EB12CC6
:1011300027E0829FC0011124FC01E159FE4F7F018D
:101140000081118180E591E00E9487000815190552
:1011500054F4872D0E944D08F70126818C01021B53
:101160001109118300830115110529F563E070E071
:10117000872D0E94BA04843159F0882349F001E098
:1011800010E08C3111F410E000E011950195110987
:10119000C8010F900F90DF91CF911F910F91FF9099
:1011A000EF90DF90CF90BF90AF909F908F907F9007
:1011B0005F904F900895801691060CF4840187E0AB
:1011C0008A9DF0018B9DF00D1124E159FE4FE280C4
:1011D000F380C114D10451F12701F7E05F22872D7C
:1011E0000E944502840D951D20918F01273309F43B
:1011F00053C09801240D351D2130384008F44CC0EF
:1012000020E038E0490184189508A401B6010E9445
:101210002F042601480C591C6801C818D908872DCD
:101220000E944502A601B2010E942F04E00EF11EA9
:1012300087E08A9DF0018B9DF00D1124E159FE4F4E
:10124000F382E28220813181201B310B31832083A4
:101250008681800F912F911D8A3F910510F4232BD9
:10126000F1F487E08A9DF0018B9DF00D1124E15986
:10127000FE4F1682F982EA8222E030E0AE014F5F33
:101280005F4F68E270E0872D0E94530260E470E0D7
:10129000872D0E94D7047CCFA801B601C5CF8683D5
:1012A00077CFCF93DF93FC01218D328D211531054E
:1012B00029F48FEF9FEFDF91CF910895EC01808D9E
:1012C0004217530708F0A9010E9481081816190651
:1012D00084F7298D3A8D281B390B3A8F298FEBCF54
:1012E0000F931F93CF93DF931F92CDB7DEB7FC010F
:1012F000218D328D232B41F48FEF9FEF0F90DF91E3
:10130000CF911F910F9108958C0141E050E0BE01F3
:101310006F5F7F4FFC01808D0E94810818161906AF
:101320005CF7F801818D928D0197928F818F898171
:1013300090E0E4CFDF92EF92FF920F931F93CF9351
:10134000DF93CDB7DEB728970FB6F894DEBF0FBE98
:10135000CDBF8C01D80159964D915C915A9741159A
:10136000510551F0ED91FC91048CF58DE02D70E06C
:1013700060E0C8010995EECFF801D08CF7E0DF9E60
:10138000C00111249C0121593E4F7901D9018D9151
:101390009C91892B59F148E050E0BE016F5F7F4F6F
:1013A000F801808D0E9481081816190694F5D8015D
:1013B000509684E0FE01319601900D928A95E1F7F6
:1013C0008D8190E0982F88272E81820F911DF80142
:1013D000958B848B8F81282F30E0322F22278885B0
:1013E000820F932F911D928F818F13C080E591E022
:1013F0000E9487008D2D0E944D08D70116962C91D2
:101400001697821B91098D939C93892B21F690E06E
:1014100080E028960FB6F894DEBF0FBECDBFDF91F7
:10142000CF911F910F91FF90EF90DF9008953F9221
:101430004F925F926F927F928F929F92AF92BF92E4
:10144000CF92DF92EF92FF920F931F93CF93DF9390
:1014500000D0CDB7DEB75C014B01342E452EFC0128
:1014600066887788508C80E591E00E94870022E0B2
:1014700030E0AE014F5F5F4F60E270E0852D0E946B
:101480001C07C980DA80DC24CD24DC2422E030E093
:10149000AE014F5F5F4F60E270E0852D0E941C0738
:1014A00089819A81982789279827C816D90609F033
:1014B00079C0E52CF12C67E0569EF0011124E1592A
:1014C000FE4FD582C482032D142DC016D10608F418
:1014D000860122E030E0AE014F5F5F4F64E270E0D2
:1014E000852D0E941C0789819A8198278927982732
:1014F000680E791E9301377040918F01433309F0D4
:1015000053C088E0E80EF11CFE2CEE24FF0CFF0C0B
:10151000FF0CC9018E0D9F1D473309F449C0A90175
:10152000400F511F4130584008F442C060E078E05D
:101530006B01C21AD30AA601B4010E948201A8015C
:101540004C195D09B4016C0D7D1DC7010E9482011B
:10155000600E711E79826A8222E030E0AE014F5F38
:101560005F4F64E270E0852D0E945302F501868989
:101570009789800F911F978B868BC8010F900F90D2
:10158000DF91CF911F910F91FF90EF90DF90CF905F
:10159000BF90AF909F908F907F906F905F904F9093
:1015A0003F9008956C0172CFE0E1EE0EF11CACCFDC
:1015B000A801B401CBCF8F929F92AF92BF92CF92EE
:1015C000DF92EF92FF921F93CF93DF9300D000D072
:1015D00000D0CDB7DEB76C015B01FC01808D84309B
:1015E00010F40E94E70480918F01811115C094E0EE
:1015F000F601908F26960FB6F894DEBF0FBECDBFD2
:10160000DF91CF911F91FF90EF90DF90CF90BF902F
:10161000AF909F908F90089580E591E00E948700A1
:101620009E012F5F3F4F7901490110E063E070E0B8
:10163000812F0E94BA04F40181934F01882309F19C
:101640001F5F143099F710E0F70181917F018D3110
:1016500099F0883189F08A51823070F01F5F143020
:1016600099F7F601108F80E0143021F2B586A48638
:10167000128E118E81E0BECF60E170E0812F0E945A
:10168000D704E12EF12C83EE93E00197F1F742E0CD
:1016900070E060E0812F0E9479024FEF62E070E01D
:1016A000812F0E947902B501A114B10489F48091BF
:1016B0000C0190910D0101968115F0EC9F0798F1B6
:1016C00090930D0180930C0160910C0170910D01BC
:1016D000812F0E94640261E070E0812F0E94D70494
:1016E00027E02E9DC0012F9D900D11249C012159B2
:1016F0003E4F7901F9011182108222E030E0AE0103
:101700004B5F5F4F68E270E0812F0E941C078D8164
:101710009E81982789279827F701938382831682D1
:10172000158214829ECF80E090ECCACF6F927F9298
:101730008F929F92AF92BF92CF92DF92EF92FF92E1
:101740000F931F93CF93DF93CDB7DEB7EC970FB610
:10175000F894DEBF0FBECDBF4C018B013A0186E588
:1017600091E09A8389831C861B8648EE53E060E0F3
:1017700070E04D875E876F87788B2CE231E03A8787
:101780002987988F8F8B198E1A8E1B8E1C8E24E0C2
:1017900029A399AB88AB1AAA1BAA1CAA1DAA8091DF
:1017A000B2019091B301A091B401B091B5018EA3A3
:1017B0009FA3A8A7B9A78B839C83AD83BE831886FC
:1017C0001F82F80120E090E080E06AE0319133234D
:1017D00009F484C040ED430F4A3008F06EC0689FA2
:1017E000A001699F500D1124CA01C097830F911D5C
:1017F00037FD9A958F3F910549F340F34B815C810A
:101800006D817E818091BE019091BF01A091C00148
:10181000B091C101481759076A077B0709F44BC209
:101820002FB7F8948091670190916801A0916901A8
:10183000B0916A012FBF8F709927BC017C5FCE01E8
:1018400009960E94DB0A813009F038C286E591E0F2
:101850009DA38CA38B819C81AD81BE818EA39FA310
:10186000A8A7B9A745E350E0BE016C5D7F4FCE014C
:1018700009960E94B202892B09F04EC010E000E0E8
:10188000CE0109960E94F3040130110559F1C801F7
:10189000EC960FB6F894DEBF0FBECDBFDF91CF91AF
:1018A0001F910F91FF90EF90DF90CF90BF90AF907E
:1018B0009F908F907F906F9008953E3209F09ECF59
:1018C000233009F49BCFA2E3B0E0AC0FBD1FA20F01
:1018D000B11D8C932F5F90E080E078CF233009F02A
:1018E0008DCF8DABD401ED91FC910488F589E02D6D
:1018F00086E591E09DA38CA38AA99BA9ACA9BDA96B
:101900008EA39FA3A8A7B9A7A301BE016C5D7F4FBB
:10191000C40109958C01BBCF2FB7F8948091670162
:1019200090916801A0916901B0916A012FBF9887D9
:101930008F8342E050E0BE01695F7F4FCE01099680
:101940000E94170A81E090E09DA38CA342E050E042
:10195000BE016C5D7F4FCE0109960E94170A80E0A0
:1019600091E09DA38CA342E050E0BE016C5D7F4FEF
:10197000CE0109960E94170A1DA21CA242E050E067
:10198000BE016C5D7F4FCE0109960E94170A42E0AE
:1019900050E0BE016C5D7F4FCE0109960E94170A90
:1019A00042E050E0BE016C5D7F4FCE0109960E947F
:1019B000170A7801D8018C91882311F18701F80169
:1019C00081916F01882311F08E32C1F45801AE1855
:1019D000BF081A141B0484F4AEAA41E050E0BE0113
:1019E0006A5C7F4FCE0109960E94170AA501B701D4
:1019F000CE0109960E94170A7601DCCF8601DFCF5F
:101A00001EAA41E050E0BE016A5C7F4FCE010996FC
:101A10000E94170A00E011E01DA30CA342E050E071
:101A2000BE016C5D7F4FCE0109960E94170A1DA36F
:101A30000CA342E050E0BE016C5D7F4FCE010996E1
:101A40000E94170ACE0109960E940005892B09F40D
:101A500015CF83E0E82EF12CD7C04B815C816D81DE
:101A60007E81898D9A8DAB8DBC8D481759076A0789
:101A70007B0709F01AC18D8D9E8DC59709F015C1A0
:101A80008AA19BA10DEF1FEF0C970CF4B4C04CE0A2
:101A900050E0BE016C5D7F4FCE0109960E94510956
:101AA0008EA19FA19827892798279BAF8AAF4F8146
:101AB00058852CA13DA14217530709F0F9C097FFA3
:101AC000F7C08F7092700BEF1FEF892B09F093C056
:101AD000AAA4BBA4BA24AB24BA240AEF1FEFA11412
:101AE000B10409F488C010E000E088A599A5982702
:101AF000892798270817190708F541E050E0BE012B
:101B00006A5C7F4FCE0109960E9451094EA9442379
:101B100039F050E070E060E0CE0109960E94510972
:101B20008EA98111EACF44E050E070E060E0CE0180
:101B300009960E9451090F5F1F4FD7CFD12CC12C9E
:101B400041E050E0BE01645C7F4FCE0109960E94E7
:101B500051094CAD842F807C09F084C0442339F0B6
:101B600050E070E060E0CE0109960E9451098CAD12
:101B70008111E6CF42E050E0BE01685C7F4FCE01AC
:101B800009960E94510942E050E0BE016A5C7F4F15
:101B9000CE0109960E94510944E050E070E060E0F7
:101BA000CE0109960E94510942E050E0BE01665CF8
:101BB0007F4FCE0109960E94510988AD99AD4AAD7B
:101BC0005BAD8115914009F057C00EA91FA91027E0
:101BD000012710270130110509F04EC0411554406E
:101BE00009F05DC044E050E0BE016E5C7F4FCE0165
:101BF00009960E945109F1E0EF1AF10809F440CE6C
:101C00000F3F100709F03CCE8FB7F894A090670102
:101C1000B0906801C0906901D0906A018FBFCE0179
:101C200009960E949A09181619060CF416CF2FB7B8
:101C3000F8948091670190916801A0916901B09139
:101C40006A012FBF8A199B09AC09BD0989389341E4
:101C5000A105B10538F562E370E080E090E00E94F4
:101C60001A01DDCF41E050E070E060E0CE0109965E
:101C70000E9451091CAE7BCF54274527542770E0A2
:101C800060E0CE0109960E945109EFEFCE1ADE0AFC
:101C9000AC14BD0409F054CF06EF1FEFACCF07EF33
:101CA0001FEFA9CF0FEF1FEFA6CF0EEF1FEFA3CFB0
:101CB0000CEF1FEFA0CF0EEF1FEFE9CD10E000E01B
:101CC000E6CD1F920F920FB60F9211242F933F93E0
:101CD0008F939F93AF93BF93809167019091680119
:101CE000A0916901B0916A013091660123E0230F50
:101CF0002D3758F50196A11DB11D209366018093E3
:101D0000670190936801A0936901B0936A01809183
:101D10006B0190916C01A0916D01B0916E010196E3
:101D2000A11DB11D80936B0190936C01A0936D0177
:101D3000B0936E01BF91AF919F918F913F912F9181
:101D40000F900FBE0F901F90189526E8230F029654
:101D5000A11DB11DD2CFE2E9F1E086E591E09183CA
:101D600080831282138214821582E8E9F1E0918364
:101D700080831282138214821582EEE9F1E091834E
:101D800080831282138214821582E4EAF1E0918347
:101D900080831282138214821582EAEAF1E0918331
:101DA00080831282138214821582E6EBF1E0918324
:101DB00080831282138214821582E0EBF1E091831A
:101DC00080831282138214821582ECEBF1E09183FE
:101DD00080831282138214821582E2ECF1E09183F7
:101DE00080831282138214821582E3EEF1E09183E4
:101DF00080831282138214821582E8ECF1E0138250
:101E0000128248EE53E060E070E0448355836683BD
:101E100077832CE231E03183208397878687108A8D
:101E2000118A128A138A84E0808F0895CF93DF93FA
:101E3000CDB7DEB7C857D1090FB6F894DEBF0FBED5
:101E4000CDBF789484B5826084BD84B5816084BD43
:101E500085B5826085BD85B5816085BD80916E0048
:101E6000816080936E001092810080918100826079
:101E700080938100809181008160809381008091B6
:101E800080008160809380008091B10084608093A5
:101E9000B1008091B00081608093B00080917A00A1
:101EA000846080937A0080917A00826080937A00C7
:101EB00080917A00816080937A0080917A008068B6
:101EC00080937A001092C10086E591E09A8389831D
:101ED000409108015091090160910A0170910B0134
:101EE0004B835C836D837E838E010B591F4FF801FA
:101EF0009183808340910401509105016091060116
:101F0000709107014283538364837583AF969FAFBB
:101F10008EAFAF978091000190910101A0910201D5
:101F2000B0910301E3968CAF9DAFAEAFBFAFE39727
:101F3000AE014F5F5F4FB801CE0183599F4F0E94A2
:101F40005A0563E375E088EC91E00E94DB0A60E2E9
:101F5000E62E61E0F62E78E2A72E71E0B72EF701AB
:101F6000D080F2E0EF0EF11C8D2D0E948A0060E01F
:101F70008D2D0E94A900AE14BF0489F73FE5C32E42
:101F800031E0D32E46E5A42E41E0B42E50E0852E5C
:101F900050E0952E88EC91E00E949A09892B09F473
:101FA000DAC044E650E0BE016F5F7F4F88EC91E0FD
:101FB0000E9415031816190644F421E030E02C0F96
:101FC0003D1F820F931FFC011082BE016F5F7F4F88
:101FD000CE018D589F4F0E94D403F80111821082C8
:101FE000138212821582148250E040E06EE571E0A7
:101FF000C8010E949503E996EEACFFACE997F4E0C6
:10200000EF16F10450F124E0E216F10419F025E096
:10201000E22EF12CE596EEADFFADE597EE0DFF1D3E
:1020200070801082E5966EAD7FADE5976D5F7F4F56
:1020300009F498C0FB0101900020E9F73197AF0146
:10204000461B570BC8010E949503E5968EAD9FADC8
:10205000E597E80EF91EF7017082F8018081918101
:10206000412C512C3201009719F00E94E4102B01F1
:10207000C8010E948D037201F1E0EF1AF10824E01B
:10208000E216F10408F062C068E571E0C8010E9440
:10209000D403E9962EAD3FADE997F801848195818F
:1020A000312C2817390738F0B801CE018D589F4FD1
:1020B0000E941F03382EC8010E948D03332009F4AB
:1020C00060C0F701EE0FFF1FE05EFE4F61E0808110
:1020D0000E94A9005F924F92DF92CF921F930F93BD
:1020E0000E9486134091DC015091DD01AF96BFAE96
:1020F000AEAEAF978091D8019091D901A091DA014D
:10210000B091DB01E3968CAF9DAFAEAFBFAFE3976D
:10211000BE0163597F4F88EC91E00E94B202F80142
:1021200001900020E9F73197AF01401B510BB80136
:1021300088EC91E00E94170A88EC91E00E9400056B
:102140000F900F900F900F900F900F90CE018D5821
:102150009F4F0E948D038114910409F41BCF0E94AC
:10216000000018CFF80180819181009711F00E9442
:102170001B12F801118210821582148213821282BE
:1021800064CF6BE571E0C8010E94D403E9962EADDF
:102190003FADE997F801848195812817390738F018
:1021A000B801CE018D589F4F0E941F03382EC801E1
:1021B0000E948D03332009F48DCFF201EE0FFF1F33
:1021C000E25EFE4F60E083CF1F93FC0199278827D2
:1021D000BC01E89411911032E9F3193010F01E306F
:1021E000C8F31B3251F01D3249F4689406C00E94B6
:1021F0000B11610F711D811D911D119110531A302A
:10220000B0F33EF490958095709561957F4F8F4F18
:102210009F4F1F910895592F482F372F262F660F54
:10222000771F881F991F660F771F881F991F620FDE
:10223000731F841F951F660F771F881F991F0895AE
:102240002F923F924F925F926F927F928F929F92C6
:10225000AF92BF92CF92DF92EF92FF920F931F93B4
:10226000CF93DF93CDB7DEB7CA1BDB0B0FB6F89465
:10227000DEBF0FBECDBF09942A88398848885F84A5
:102280006E847D848C849B84AA84B984C884DF8016
:10229000EE80FD800C811B81AA81B981CE0FD11DFA
:1022A0000FB6F894DEBF0FBECDBFED010895A1E2D9
:1022B0001A2EAA1BBB1BFD010DC0AA1FBB1FEE1FC0
:1022C000FF1FA217B307E407F50720F0A21BB30B0B
:1022D000E40BF50B661F771F881F991F1A9469F787
:1022E00060957095809590959B01AC01BD01CF01E3
:1022F0000895EE0FFF1F0590F491E02D09940F93C0
:102300001F93CF93DF938230910510F482E090E029
:10231000E091EB01F091EC0130E020E0B0E0A0E0D2
:10232000309799F42115310509F44AC0281B390B5F
:1023300024303105D8F58A819B816115710589F1B9
:10234000FB0193838283FE0111C040815181028190
:10235000138148175907E0F04817590799F4109767
:1023600061F012960C93129713961C933296CF013C
:10237000DF91CF911F910F9108950093EB0110937E
:10238000EC01F4CF2115310551F04217530738F015
:10239000A901DB019A01BD01DF01F801C1CFEF0105
:1023A000F9CF9093EC018093EB01CDCFFE01E20FCA
:1023B000F31F819391932250310939832883D7CF1A
:1023C0002091E9013091EA01232B41F4209116017B
:1023D000309117013093EA012093E9012091140113
:1023E000309115012115310541F42DB73EB74091CB
:1023F000180150911901241B350BE091E901F0916E
:10240000EA01E217F307A0F42E1B3F0B2817390748
:1024100078F0AC014E5F5F4F2417350748F04E0F40
:102420005F1F5093EA014093E901819391939FCFFD
:10243000F0E0E0E09CCFCF93DF930097E9F0FC0160
:10244000329713821282A091EB01B091EC01ED0161
:1024500030E020E01097A1F420813181820F931F9A
:102460002091E9013091EA012817390709F061C08C
:10247000F093EA01E093E901DF91CF910895EA0139
:10248000CE17DF07E8F54A815B819E0141155105B2
:10249000B1F7E901FB83EA8349915991C40FD51F34
:1024A000EC17FD0761F4808191810296840F951FDE
:1024B000E90199838883828193819B838A83F0E0F9
:1024C000E0E012968D919C9113970097B9F52D91AC
:1024D0003C911197CD010296820F931F2091E90143
:1024E0003091EA012817390739F6309751F51092E3
:1024F000EC011092EB01B093EA01A093E901BCCF8B
:10250000D383C28340815181840F951FC817D90797
:1025100061F44E5F5F4F88819981480F591F518345
:1025200040838A819B81938382832115310509F041
:10253000B0CFF093EC01E093EB019ECFFD01DC0105
:10254000C0CF13821282D7CFB0E0A0E0EAEAF2E176
:102550000C9422118C01009751F4CB010E947F1141
:102560008C01C801CDB7DEB7E0E10C943E11FC014F
:10257000E60FF71F9C0122503109E217F30708F418
:102580009DC0D901CD91DC911197C617D70798F05E
:10259000C530D10530F3CE0104978617970708F3AD
:1025A000C61BD70B2297C193D1936D937C93CF0118
:1025B0000E941B12D6CF5B01AC1ABD0A4C018C0ED7
:1025C0009D1EA091EB01B091EC01512C412CF12CFE
:1025D000E12C109731F58091E9019091EA0188157D
:1025E000990509F05CC04616570608F058C080915E
:1025F000140190911501009741F48DB79EB7409159
:10260000180150911901841B950BE817F90708F080
:1026100055C0F093EA01E093E901F9017183608309
:10262000A0CF8D919C91119712966C901297139652
:102630007C901397A815B90559F56C0142E0C40EBA
:10264000D11CCA14DB0420F1AC014A195B09DA0180
:102650001296159780F06282738251834083D9016C
:102660006D937C93E114F10471F0D7011396FC9300
:10267000EE93129776CF22968C0F9D1FF9019183CE
:102680008083F301EFCFF093EC01E093EB0169CF8E
:102690004816590608F42C017D01D3019ACFCB01CD
:1026A0000E947F117C01009749F0AE01B8010E94A1
:1026B0006113C8010E941B12870153CF10E000E094
:1026C00050CFFB01DC0102C001900D9241505040FF
:1026D000D8F70895DC0101C06D9341505040E0F7F8
:1026E0000895FB01DC0101900D920020E1F70895AF
:1026F000FB01DC014150504030F08D910190801978
:1027000019F40020B9F7881B990B0895AEE0B0E0EA
:10271000ECE8F3E10C942E110D891E8986E08C8380
:102720001A8309838FEF9FE79E838D83AE01475EF7
:102730005F4F6F89788DCE0101960E94A9132F817A
:102740003885020F131FF80110822E96E4E00C94D6
:102750004A11ABE0B0E0EFEAF3E10C9420117C0108
:102760003B018A01FC0117821682838181FFC8C167
:10277000CE0101965C01F7019381F30193FD8591F0
:1027800093FF81913F01882309F453C1853239F4C5
:1027900093FD859193FF81913F01853229F4B70123
:1027A00090E00E949915E7CF912C212C312CFFE16C
:1027B000F31538F08B3211F190F4803209F1833245
:1027C00029F137FC3CC020ED280F2A3050F536FEA9
:1027D00020C08AE0989E200D1124922E06C08D32D2
:1027E00091F0803371F7689430F8F30193FD85918F
:1027F00093FF81913F018111DACF21C0689431F8B4
:10280000689432F8F2CF689433F8EFCF689434F8D4
:10281000ECCFEAE02E9E200D1124222E689435F88C
:10282000E4CF8E3229F436FC04C1689436F8DDCF4B
:102830008C3619F4689437F8D8CF8836B1F2982FCF
:102840009F7D95549330E0F08336A1F18337C1F139
:10285000833509F063C02801F2E04F0E511CF801E6
:10286000C080D180692D70E036FC02C06FEF7FEF31
:10287000C6010E9483154C01689437F882010AC092
:102880000C5F1F4FFFE3F98388248394912C65012B
:10289000E89437F833FE2DC0522C8114910471F561
:1028A000552009F468CFB70180E290E00E949915A5
:1028B0005A94F6CFF801808189830E5F1F4FE4CFD1
:1028C0002801F2E04F0E511CF801C080D180692D23
:1028D00070E036FC02C06FEF7FEFC6010E948E15DC
:1028E0004C018201D5CFB70180E290E00E9499159A
:1028F0002A942814190409F0B0F7CECFF60137FC5A
:10290000859137FE81916F01B70190E00E94991582
:1029100051105A94F1E08F1A9108BFCF843619F004
:10292000893609F077C0F80137FE6BC0608171818C
:10293000828193810C5F1F4FF32DFF763F2E97FF0F
:1029400009C090958095709561957F4F8F4F9F4FEF
:10295000689437F82AE030E0A5010E94C915C82E16
:10296000CA188C2C432C36FE0CC0E89440F8C914CD
:1029700040F434FE05C032FC03C0F32DFE7E4F2E22
:10298000892C44FE95C0FE01EC0DF11D8081803341
:1029900009F087C0242D297E422E842D8870582E60
:1029A00043FC95C040FE8FC09C2C821418F42C0C64
:1029B000922C981844FE91C0B70180E390E00E94E9
:1029C000991542FE09C088E790E041FE02C088E503
:1029D00090E0B7010E949915C91408F48AC0CA94FE
:1029E000D12C9FEFC91AD90ACA0CDB1CF6018291BF
:1029F0006F01B70190E00E949915AC14BD04B1F7C6
:102A00004FCF60817181072E000C880B990B0E5FF0
:102A10001F4F92CFD32CE894D4F82AE030E08537CA
:102A200039F1232D297FD22E8F3601F148F48835D4
:102A3000A9F0F701868197812B96E2E10C943C1175
:102A4000803749F08837A9F7D4FE02C06894D2F8DD
:102A500020E130E00DC06894D4F8F6CF34FE03C016
:102A6000822F8660D82E20E132E002C028E030E0DC
:102A7000F801D7FE0FC060817181828193810C5F64
:102A80001F4FA5010E94C915C82ECA183D2CE894F5
:102A900037F867CF6081718190E080E00E5F1F4F53
:102AA000F0CF42FC02C0839478CF8394839475CF97
:102AB000842D867809F471CFF6CFB70180E290E0DB
:102AC0000E94991583948214C0F3512C73CF522C19
:102AD0005818821408F46ECFF8CF842D867809F444
:102AE0007BCF8BE241FE80E247FC8DE2B70190E0B4
:102AF00071CFB70180E390E00E9499159A946CCF52
:102B00008FEF9FEF99CFFC0105906150704001104D
:102B1000D8F7809590958E0F9F1F0895FC01615006
:102B2000704001900110D8F7809590958E0F9F1FEF
:102B300008950F931F93CF93DF93182F092FEB0165
:102B40008B8181FD09C01FEF0FEF812F902FDF9147
:102B5000CF911F910F91089582FF14C02E813F8164
:102B60008C819D81281739073CF4E881F981CF01D8
:102B700001969983888310838E819F8101969F831C
:102B80008E83E3CFE885F985812F0995892BA1F301
:102B9000DACFFA01AA27283051F1203181F1E894E7
:102BA0006F936E7F6E5F7F4F8F4F9F4FAF4FB1E040
:102BB0003ED0B4E03CD0670F781F891F9A1FA11D3B
:102BC000680F791F8A1F911DA11D6A0F711D811D3C
:102BD000911DA11D20D009F468943F912AE0269F01
:102BE00011243019305D3193DEF6CF010895462F60
:102BF0004770405D4193B3E00FD0C9F7F6CF462F41
:102C00004F70405D4A3318F0495D31FD40524193A9
:102C100002D0A9F7EACFB4E0A69597958795779566
:102C20006795BA95C9F700976105710508959B01ED
:102C3000AC010A2E06945795479537952795BA9576
:102C4000C9F7620F731F841F951FA01D0895F89484
:102C5000FFCFC0A8010BC0A80101FFFFFF0000C00B
:102C6000A55AA5A5A55A0000ED01800001005E004F
:102C700000000700090003000800000000009702A0
:102C8000170A1C039602AD027009EB06DB0A0B085B
:102C9000F304B202960B00059A09510915030503C6
:102CA0000103FD0200000000E5034F4E004F4646C1
:082CB000006F6B202564000099
:107E0000112484B714BE81FFF0D085E080938100F7
:107E100082E08093C00088E18093C10086E0809377
:107E2000C20080E18093C4008EE0C9D0259A86E02C
:107E300020E33CEF91E0309385002093840096BBD3
:107E4000B09BFECF1D9AA8958150A9F7CC24DD24C4
:107E500088248394B5E0AB2EA1E19A2EF3E0BF2EE7
:107E6000A2D0813461F49FD0082FAFD0023811F036
:107E7000013811F484E001C083E08DD089C08234E0
:107E800011F484E103C0853419F485E0A6D080C0E4
:107E9000853579F488D0E82EFF2485D0082F10E0AE
:107EA000102F00270E291F29000F111F8ED06801E7
:107EB0006FC0863521F484E090D080E0DECF843638
:107EC00009F040C070D06FD0082F6DD080E0C81688
:107ED00080E7D80618F4F601B7BEE895C0E0D1E017
:107EE00062D089930C17E1F7F0E0CF16F0E7DF06D8
:107EF00018F0F601B7BEE89568D007B600FCFDCFD4
:107F0000A601A0E0B1E02C9130E011968C91119780
:107F100090E0982F8827822B932B1296FA010C0160
:107F200087BEE89511244E5F5F4FF1E0A038BF0790
:107F300051F7F601A7BEE89507B600FCFDCF97BE46
:107F4000E89526C08437B1F42ED02DD0F82E2BD052
:107F50003CD0F601EF2C8F010F5F1F4F84911BD097
:107F6000EA94F801C1F70894C11CD11CFA94CF0C13
:107F7000D11C0EC0853739F428D08EE10CD085E9AC
:107F80000AD08FE07ACF813511F488E018D01DD067
:107F900080E101D065CF982F8091C00085FFFCCF94
:107FA0009093C60008958091C00087FFFCCF809118
:107FB000C00084FD01C0A8958091C6000895E0E648
:107FC000F0E098E1908380830895EDDF803219F02E
:107FD00088E0F5DFFFCF84E1DECF1F93182FE3DFCA
:107FE0001150E9F7F2DF1F91089580E0E8DFEE27F6
:047FF000FF270994CA
:027FFE00040479
:00000001FF
